{
  "contractName": "Election",
  "abi": [
    {
      "inputs": [],
      "payable": false,
      "stateMutability": "nonpayable",
      "type": "constructor"
    },
    {
      "anonymous": false,
      "inputs": [
        {
          "indexed": false,
          "internalType": "address",
          "name": "_granted",
          "type": "address"
        }
      ],
      "name": "grantedPermissionEvent",
      "type": "event"
    },
    {
      "anonymous": false,
      "inputs": [],
      "name": "requestedPermissionEvent",
      "type": "event"
    },
    {
      "anonymous": false,
      "inputs": [
        {
          "indexed": true,
          "internalType": "uint256",
          "name": "candidate",
          "type": "uint256"
        }
      ],
      "name": "votedEvent",
      "type": "event"
    },
    {
      "constant": true,
      "inputs": [],
      "name": "admin",
      "outputs": [
        {
          "internalType": "address",
          "name": "",
          "type": "address"
        }
      ],
      "payable": false,
      "stateMutability": "view",
      "type": "function"
    },
    {
      "constant": true,
      "inputs": [
        {
          "internalType": "uint256",
          "name": "",
          "type": "uint256"
        }
      ],
      "name": "candidates",
      "outputs": [
        {
          "internalType": "uint256",
          "name": "id",
          "type": "uint256"
        },
        {
          "internalType": "string",
          "name": "name",
          "type": "string"
        },
        {
          "internalType": "uint256",
          "name": "votes",
          "type": "uint256"
        }
      ],
      "payable": false,
      "stateMutability": "view",
      "type": "function"
    },
    {
      "constant": true,
      "inputs": [],
      "name": "candidatesCount",
      "outputs": [
        {
          "internalType": "uint256",
          "name": "",
          "type": "uint256"
        }
      ],
      "payable": false,
      "stateMutability": "view",
      "type": "function"
    },
    {
      "constant": true,
      "inputs": [
        {
          "internalType": "address",
          "name": "",
          "type": "address"
        }
      ],
      "name": "voters",
      "outputs": [
        {
          "internalType": "address",
          "name": "public_address",
          "type": "address"
        },
        {
          "internalType": "bool",
          "name": "voted",
          "type": "bool"
        },
        {
          "internalType": "bool",
          "name": "canVote",
          "type": "bool"
        }
      ],
      "payable": false,
      "stateMutability": "view",
      "type": "function"
    },
    {
      "constant": true,
      "inputs": [],
      "name": "votersCount",
      "outputs": [
        {
          "internalType": "uint256",
          "name": "",
          "type": "uint256"
        }
      ],
      "payable": false,
      "stateMutability": "view",
      "type": "function"
    },
    {
      "constant": true,
      "inputs": [
        {
          "internalType": "uint256",
          "name": "",
          "type": "uint256"
        }
      ],
      "name": "votersKeys",
      "outputs": [
        {
          "internalType": "address",
          "name": "",
          "type": "address"
        }
      ],
      "payable": false,
      "stateMutability": "view",
      "type": "function"
    },
    {
      "constant": true,
      "inputs": [
        {
          "internalType": "uint256",
          "name": "",
          "type": "uint256"
        }
      ],
      "name": "votes",
      "outputs": [
        {
          "internalType": "address",
          "name": "voter",
          "type": "address"
        },
        {
          "internalType": "uint256",
          "name": "candidate",
          "type": "uint256"
        },
        {
          "internalType": "string",
          "name": "candidateName",
          "type": "string"
        }
      ],
      "payable": false,
      "stateMutability": "view",
      "type": "function"
    },
    {
      "constant": true,
      "inputs": [],
      "name": "votesCount",
      "outputs": [
        {
          "internalType": "uint256",
          "name": "",
          "type": "uint256"
        }
      ],
      "payable": false,
      "stateMutability": "view",
      "type": "function"
    },
    {
      "constant": false,
      "inputs": [],
      "name": "requestVoteCapability",
      "outputs": [],
      "payable": false,
      "stateMutability": "nonpayable",
      "type": "function"
    },
    {
      "constant": false,
      "inputs": [
        {
          "internalType": "address",
          "name": "voter",
          "type": "address"
        }
      ],
      "name": "giveVoteCapability",
      "outputs": [],
      "payable": false,
      "stateMutability": "nonpayable",
      "type": "function"
    },
    {
      "constant": false,
      "inputs": [
        {
          "internalType": "uint256",
          "name": "candidate",
          "type": "uint256"
        }
      ],
      "name": "vote",
      "outputs": [],
      "payable": false,
      "stateMutability": "nonpayable",
      "type": "function"
    },
    {
      "constant": true,
      "inputs": [],
      "name": "getVotes",
      "outputs": [
        {
          "components": [
            {
              "internalType": "address",
              "name": "voter",
              "type": "address"
            },
            {
              "internalType": "uint256",
              "name": "candidate",
              "type": "uint256"
            },
            {
              "internalType": "string",
              "name": "candidateName",
              "type": "string"
            }
          ],
          "internalType": "struct Election.Vote[]",
          "name": "",
          "type": "tuple[]"
        }
      ],
      "payable": false,
      "stateMutability": "view",
      "type": "function"
    },
    {
      "constant": true,
      "inputs": [],
      "name": "getVoters",
      "outputs": [
        {
          "components": [
            {
              "internalType": "address",
              "name": "public_address",
              "type": "address"
            },
            {
              "internalType": "bool",
              "name": "voted",
              "type": "bool"
            },
            {
              "internalType": "bool",
              "name": "canVote",
              "type": "bool"
            }
          ],
          "internalType": "struct Election.Voter[]",
          "name": "",
          "type": "tuple[]"
        }
      ],
      "payable": false,
      "stateMutability": "view",
      "type": "function"
    },
    {
      "constant": true,
      "inputs": [],
      "name": "getCandidates",
      "outputs": [
        {
          "components": [
            {
              "internalType": "uint256",
              "name": "id",
              "type": "uint256"
            },
            {
              "internalType": "string",
              "name": "name",
              "type": "string"
            },
            {
              "internalType": "uint256",
              "name": "votes",
              "type": "uint256"
            }
          ],
          "internalType": "struct Election.Candidate[]",
          "name": "",
          "type": "tuple[]"
        }
      ],
      "payable": false,
      "stateMutability": "view",
      "type": "function"
    }
  ],
  "bytecode": "0x60806040523480156200001157600080fd5b5033600760006101000a81548173ffffffffffffffffffffffffffffffffffffffff021916908373ffffffffffffffffffffffffffffffffffffffff160217905550620000996040518060400160405280600c81526020017f5461796c6f722053776966740000000000000000000000000000000000000000815250620000e560201b60201c565b620000df6040518060400160405280600c81526020017f4c616e612064656c205265790000000000000000000000000000000000000000815250620000e560201b60201c565b62000212565b6003600081548092919060010191905055506040518060600160405280600354815260200182815260200160008152506001600060035481526020019081526020016000206000820151816000015560208201518160010190805190602001906200015292919062000163565b506040820151816002015590505050565b828054600181600116156101000203166002900490600052602060002090601f016020900481019282601f10620001a657805160ff1916838001178555620001d7565b82800160010185558215620001d7579182015b82811115620001d6578251825591602001919060010190620001b9565b5b509050620001e69190620001ea565b5090565b6200020f91905b808211156200020b576000816000905550600101620001f1565b5090565b90565b611d0d80620002226000396000f3fe608060405234801561001057600080fd5b50600436106100ea5760003560e01c80635df813301161008c57806398c079381161006657806398c079381461023d578063a3ec138d1461025b578063cdd722531461028d578063f851a440146102ab576100ea565b80635df81330146101d157806377a3be0a146102035780638778b27d1461021f576100ea565b80632b71187b116100c85780632b71187b146101475780632d35a8a2146101515780633477ee2e1461016f5780634c55d098146101a1576100ea565b80630121b93f146100ef57806306a49fce1461010b5780630dc9601514610129575b600080fd5b61010960048036036101049190810190611438565b6102c9565b005b610113610664565b60405161012091906119d9565b60405180910390f35b6101316107b9565b60405161013e91906119fb565b60405180910390f35b61014f610967565b005b610159610c58565b6040516101669190611adf565b60405180910390f35b61018960048036036101849190810190611438565b610c5e565b60405161019893929190611afa565b60405180910390f35b6101bb60048036036101b69190810190611438565b610d20565b6040516101c89190611949565b60405180910390f35b6101eb60048036036101e69190810190611438565b610d5c565b6040516101fa9392919061199b565b60405180910390f35b61021d6004803603610218919081019061140f565b610e4b565b005b61022761108d565b6040516102349190611adf565b60405180910390f35b610245611093565b6040516102529190611adf565b60405180910390f35b6102756004803603610270919081019061140f565b611099565b60405161028493929190611964565b60405180910390f35b6102956110fd565b6040516102a29190611a1d565b60405180910390f35b6102b3611287565b6040516102c09190611949565b60405180910390f35b6000803373ffffffffffffffffffffffffffffffffffffffff1673ffffffffffffffffffffffffffffffffffffffff16815260200190815260200160002060000160149054906101000a900460ff1615610358576040517f08c379a000000000000000000000000000000000000000000000000000000000815260040161034f90611a7f565b60405180910390fd5b6000803373ffffffffffffffffffffffffffffffffffffffff1673ffffffffffffffffffffffffffffffffffffffff16815260200190815260200160002060000160159054906101000a900460ff166103e6576040517f08c379a00000000000000000000000000000000000000000000000000000000081526004016103dd90611a3f565b60405180910390fd5b6000811180156103f857506003548111155b610437576040517f08c379a000000000000000000000000000000000000000000000000000000000815260040161042e90611a5f565b60405180910390fd5b60016000803373ffffffffffffffffffffffffffffffffffffffff1673ffffffffffffffffffffffffffffffffffffffff16815260200190815260200160002060000160146101000a81548160ff0219169083151502179055506001600082815260200190815260200160002060020160008154809291906001019190505550600660405180606001604052803373ffffffffffffffffffffffffffffffffffffffff168152602001838152602001600160008581526020019081526020016000206001018054600181600116156101000203166002900480601f0160208091040260200160405190810160405280929190818152602001828054600181600116156101000203166002900480156105905780601f1061056557610100808354040283529160200191610590565b820191906000526020600020905b81548152906001019060200180831161057357829003601f168201915b50505050508152509080600181540180825580915050906001820390600052602060002090600302016000909192909190915060008201518160000160006101000a81548173ffffffffffffffffffffffffffffffffffffffff021916908373ffffffffffffffffffffffffffffffffffffffff1602179055506020820151816001015560408201518160020190805190602001906106309291906112ad565b50505050807ffff3c900d938d21d0990d786e819f29b8d05c1ef587b462b939609625b684b1660405160405180910390a250565b6060806003546040519080825280602002602001820160405280156106a357816020015b61069061132d565b8152602001906001900390816106885790505b50905060008090505b6003548110156107b1576001600060018301815260200190815260200160002060405180606001604052908160008201548152602001600182018054600181600116156101000203166002900480601f01602080910402602001604051908101604052809291908181526020018280546001816001161561010002031660029004801561077a5780601f1061074f5761010080835404028352916020019161077a565b820191906000526020600020905b81548152906001019060200180831161075d57829003601f168201915b5050505050815260200160028201548152505082828151811061079957fe5b602002602001018190525080806001019150506106ac565b508091505090565b60606000600680549050905060608160405190808252806020026020018201604052801561080157816020015b6107ee61134e565b8152602001906001900390816107e65790505b50905060008090505b8281101561095e576006818154811061081f57fe5b90600052602060002090600302016040518060600160405290816000820160009054906101000a900473ffffffffffffffffffffffffffffffffffffffff1673ffffffffffffffffffffffffffffffffffffffff1673ffffffffffffffffffffffffffffffffffffffff16815260200160018201548152602001600282018054600181600116156101000203166002900480601f0160208091040260200160405190810160405280929190818152602001828054600181600116156101000203166002900480156109315780601f1061090657610100808354040283529160200191610931565b820191906000526020600020905b81548152906001019060200180831161091457829003601f168201915b50505050508152505082828151811061094657fe5b6020026020010181905250808060010191505061080a565b50809250505090565b6000803373ffffffffffffffffffffffffffffffffffffffff1673ffffffffffffffffffffffffffffffffffffffff16815260200190815260200160002060000160149054906101000a900460ff16156109c057600080fd5b6000803373ffffffffffffffffffffffffffffffffffffffff1673ffffffffffffffffffffffffffffffffffffffff16815260200190815260200160002060000160159054906101000a900460ff1615610a1957600080fd5b3373ffffffffffffffffffffffffffffffffffffffff166000803373ffffffffffffffffffffffffffffffffffffffff1673ffffffffffffffffffffffffffffffffffffffff16815260200190815260200160002060000160009054906101000a900473ffffffffffffffffffffffffffffffffffffffff1673ffffffffffffffffffffffffffffffffffffffff161415610ab357600080fd5b60405180606001604052803373ffffffffffffffffffffffffffffffffffffffff168152602001600015158152602001600015158152506000803373ffffffffffffffffffffffffffffffffffffffff1673ffffffffffffffffffffffffffffffffffffffff16815260200190815260200160002060008201518160000160006101000a81548173ffffffffffffffffffffffffffffffffffffffff021916908373ffffffffffffffffffffffffffffffffffffffff16021790555060208201518160000160146101000a81548160ff02191690831515021790555060408201518160000160156101000a81548160ff02191690831515021790555090505060053390806001815401808255809150509060018203906000526020600020016000909192909190916101000a81548173ffffffffffffffffffffffffffffffffffffffff021916908373ffffffffffffffffffffffffffffffffffffffff160217905550506002600081548092919060010191905055507f4c6e6b43798dcc875f4d522e665a06a08cfe9f31135677fe0e3a0ec556ecc7cd60405160405180910390a1565b60035481565b6001602052806000526040600020600091509050806000015490806001018054600181600116156101000203166002900480601f016020809104026020016040519081016040528092919081815260200182805460018160011615610100020316600290048015610d105780601f10610ce557610100808354040283529160200191610d10565b820191906000526020600020905b815481529060010190602001808311610cf357829003601f168201915b5050505050908060020154905083565b60058181548110610d2d57fe5b906000526020600020016000915054906101000a900473ffffffffffffffffffffffffffffffffffffffff1681565b60068181548110610d6957fe5b90600052602060002090600302016000915090508060000160009054906101000a900473ffffffffffffffffffffffffffffffffffffffff1690806001015490806002018054600181600116156101000203166002900480601f016020809104026020016040519081016040528092919081815260200182805460018160011615610100020316600290048015610e415780601f10610e1657610100808354040283529160200191610e41565b820191906000526020600020905b815481529060010190602001808311610e2457829003601f168201915b5050505050905083565b6000808273ffffffffffffffffffffffffffffffffffffffff1673ffffffffffffffffffffffffffffffffffffffff16815260200190815260200160002060000160149054906101000a900460ff1615610eda576040517f08c379a0000000000000000000000000000000000000000000000000000000008152600401610ed190611a7f565b60405180910390fd5b6000808273ffffffffffffffffffffffffffffffffffffffff1673ffffffffffffffffffffffffffffffffffffffff16815260200190815260200160002060000160159054906101000a900460ff1615610f69576040517f08c379a0000000000000000000000000000000000000000000000000000000008152600401610f6090611a9f565b60405180910390fd5b600760009054906101000a900473ffffffffffffffffffffffffffffffffffffffff1673ffffffffffffffffffffffffffffffffffffffff163373ffffffffffffffffffffffffffffffffffffffff1614610ff9576040517f08c379a0000000000000000000000000000000000000000000000000000000008152600401610ff090611abf565b60405180910390fd5b60016000808373ffffffffffffffffffffffffffffffffffffffff1673ffffffffffffffffffffffffffffffffffffffff16815260200190815260200160002060000160156101000a81548160ff0219169083151502179055507f69fba24ce94a015ad3132f29793fe4f7a2b589cfa5d68648ae15a7cbff16cb8b816040516110829190611949565b60405180910390a150565b60045481565b60025481565b60006020528060005260406000206000915090508060000160009054906101000a900473ffffffffffffffffffffffffffffffffffffffff16908060000160149054906101000a900460ff16908060000160159054906101000a900460ff16905083565b60608060025460405190808252806020026020018201604052801561113c57816020015b611129611385565b8152602001906001900390816111215790505b50905060008090505b60025481101561127f576000806005838154811061115f57fe5b9060005260206000200160009054906101000a900473ffffffffffffffffffffffffffffffffffffffff1673ffffffffffffffffffffffffffffffffffffffff1673ffffffffffffffffffffffffffffffffffffffff1681526020019081526020016000206040518060600160405290816000820160009054906101000a900473ffffffffffffffffffffffffffffffffffffffff1673ffffffffffffffffffffffffffffffffffffffff1673ffffffffffffffffffffffffffffffffffffffff1681526020016000820160149054906101000a900460ff161515151581526020016000820160159054906101000a900460ff16151515158152505082828151811061126757fe5b60200260200101819052508080600101915050611145565b508091505090565b600760009054906101000a900473ffffffffffffffffffffffffffffffffffffffff1681565b828054600181600116156101000203166002900490600052602060002090601f016020900481019282601f106112ee57805160ff191683800117855561131c565b8280016001018555821561131c579182015b8281111561131b578251825591602001919060010190611300565b5b50905061132991906113c0565b5090565b60405180606001604052806000815260200160608152602001600081525090565b6040518060600160405280600073ffffffffffffffffffffffffffffffffffffffff16815260200160008152602001606081525090565b6040518060600160405280600073ffffffffffffffffffffffffffffffffffffffff1681526020016000151581526020016000151581525090565b6113e291905b808211156113de5760008160009055506001016113c6565b5090565b90565b6000813590506113f481611c9c565b92915050565b60008135905061140981611cb3565b92915050565b60006020828403121561142157600080fd5b600061142f848285016113e5565b91505092915050565b60006020828403121561144a57600080fd5b6000611458848285016113fa565b91505092915050565b600061146d8383611849565b905092915050565b60006114818383611899565b905092915050565b600061149583836118e9565b60608301905092915050565b6114aa81611c10565b82525050565b6114b981611c10565b82525050565b60006114ca82611b68565b6114d48185611bbb565b9350836020820285016114e685611b38565b8060005b8581101561152257848403895281516115038582611461565b945061150e83611b94565b925060208a019950506001810190506114ea565b50829750879550505050505092915050565b600061153f82611b73565b6115498185611bcc565b93508360208202850161155b85611b48565b8060005b8581101561159757848403895281516115788582611475565b945061158383611ba1565b925060208a0199505060018101905061155f565b50829750879550505050505092915050565b60006115b482611b7e565b6115be8185611bdd565b93506115c983611b58565b8060005b838110156115fa5781516115e18882611489565b97506115ec83611bae565b9250506001810190506115cd565b5085935050505092915050565b61161081611c22565b82525050565b61161f81611c22565b82525050565b600061163082611b89565b61163a8185611bee565b935061164a818560208601611c58565b61165381611c8b565b840191505092915050565b600061166982611b89565b6116738185611bff565b9350611683818560208601611c58565b61168c81611c8b565b840191505092915050565b60006116a4602983611bff565b91507f456c6569746f72206e616f20706f73737569206120636170616369646164652060008301527f646520766f7461722100000000000000000000000000000000000000000000006020830152604082019050919050565b600061170a601983611bff565b91507f43616e64696461746f206e616f20656e636f6e747261646f21000000000000006000830152602082019050919050565b600061174a601f83611bff565b91507f456c6569746f72206a61207265616c697a6f75206f2073657520766f746f21006000830152602082019050919050565b600061178a602883611bff565b91507f456c6569746f72206a6120706f7373756920612063617061636964616465206460008301527f6520766f746172210000000000000000000000000000000000000000000000006020830152604082019050919050565b60006117f0602f83611bff565b91507f536f6d656e7465206f2061646d696e20706f646520646172206120636170616360008301527f696461646520646520766f7461722100000000000000000000000000000000006020830152604082019050919050565b6000606083016000830151611861600086018261192b565b50602083015184820360208601526118798282611625565b915050604083015161188e604086018261192b565b508091505092915050565b60006060830160008301516118b160008601826114a1565b5060208301516118c4602086018261192b565b50604083015184820360408601526118dc8282611625565b9150508091505092915050565b6060820160008201516118ff60008501826114a1565b5060208201516119126020850182611607565b5060408201516119256040850182611607565b50505050565b61193481611c4e565b82525050565b61194381611c4e565b82525050565b600060208201905061195e60008301846114b0565b92915050565b600060608201905061197960008301866114b0565b6119866020830185611616565b6119936040830184611616565b949350505050565b60006060820190506119b060008301866114b0565b6119bd602083018561193a565b81810360408301526119cf818461165e565b9050949350505050565b600060208201905081810360008301526119f381846114bf565b905092915050565b60006020820190508181036000830152611a158184611534565b905092915050565b60006020820190508181036000830152611a3781846115a9565b905092915050565b60006020820190508181036000830152611a5881611697565b9050919050565b60006020820190508181036000830152611a78816116fd565b9050919050565b60006020820190508181036000830152611a988161173d565b9050919050565b60006020820190508181036000830152611ab88161177d565b9050919050565b60006020820190508181036000830152611ad8816117e3565b9050919050565b6000602082019050611af4600083018461193a565b92915050565b6000606082019050611b0f600083018661193a565b8181036020830152611b21818561165e565b9050611b30604083018461193a565b949350505050565b6000819050602082019050919050565b6000819050602082019050919050565b6000819050602082019050919050565b600081519050919050565b600081519050919050565b600081519050919050565b600081519050919050565b6000602082019050919050565b6000602082019050919050565b6000602082019050919050565b600082825260208201905092915050565b600082825260208201905092915050565b600082825260208201905092915050565b600082825260208201905092915050565b600082825260208201905092915050565b6000611c1b82611c2e565b9050919050565b60008115159050919050565b600073ffffffffffffffffffffffffffffffffffffffff82169050919050565b6000819050919050565b60005b83811015611c76578082015181840152602081019050611c5b565b83811115611c85576000848401525b50505050565b6000601f19601f8301169050919050565b611ca581611c10565b8114611cb057600080fd5b50565b611cbc81611c4e565b8114611cc757600080fd5b5056fea365627a7a723158205bce12a8ecc4eb191722397767ae9e88520eefa76d1c7f2c9e4289bd74b342876c6578706572696d656e74616cf564736f6c63430005100040",
  "source": "// SPDX-License-Identifier: MIT\n\npragma solidity >=0.5.16;\npragma experimental ABIEncoderV2;\n\ncontract Election {\n\n    struct Voter{\n        address public_address;\n        bool voted;\n        bool canVote;\n    }\n\n    struct Candidate {\n        uint id;\n        string name;\n        uint votes;\n    }\n\n    struct Vote{\n        address voter;  \n        uint candidate;\n        string candidateName;\n    }   \n\n    mapping(address => Voter) public voters;\n    mapping(uint => Candidate) public candidates;\n\n    uint public votersCount;\n    uint public candidatesCount;\n    uint public votesCount;\n\n    address[] public votersKeys;\n\n    Vote[] public votes;\n\n    address public admin;\n\n    event votedEvent (\n        uint indexed candidate\n    );\n\n     event requestedPermissionEvent ();\n\n     event grantedPermissionEvent (\n         address _granted\n     );\n\n    constructor() public {\n        admin = msg.sender;\n        addCandidate(\"Taylor Swift\");\n        addCandidate(\"Lana del Rey\");\n    }\n\n    function addCandidate (string  memory _name) private {\n        candidatesCount ++;\n        candidates[candidatesCount] = Candidate(candidatesCount, _name, 0);\n    }\n\n    function requestVoteCapability() public {\n        require(!voters[msg.sender].voted);\n        require(!voters[msg.sender].canVote);\n        require(voters[msg.sender].public_address != msg.sender);\n\n        voters[msg.sender] = Voter(msg.sender, false, false);\n        votersKeys.push(msg.sender);\n        votersCount ++;\n    \n        emit requestedPermissionEvent();\n    }\n\n    \n    function giveVoteCapability(address voter) public {\n        require(!voters[voter].voted, \"Eleitor ja realizou o seu voto!\");\n        require(!voters[voter].canVote, \"Eleitor ja possui a capacidade de votar!\");\n        require(msg.sender == admin, \"Somente o admin pode dar a capacidade de votar!\");\n\n        voters[voter].canVote = true;\n\n        emit grantedPermissionEvent(voter);\n    }\n\n    function vote (uint  candidate) public {\n        require(!voters[msg.sender].voted, \"Eleitor ja realizou o seu voto!\");\n        require(voters[msg.sender].canVote, \"Eleitor nao possui a capacidade de votar!\");\n        require(candidate > 0 && candidate <= candidatesCount, \"Candidato nao encontrado!\");\n\n        voters[msg.sender].voted = true;\n        candidates[candidate].votes ++;\n\n        votes.push(Vote(msg.sender, candidate, candidates[candidate].name));\n\n        emit votedEvent(candidate);\n    }\n\n    function getVotes() public view  returns(Vote[] memory){\n        uint  totalVotes = votes.length;\n        Vote[] memory votesAux = new Vote[](totalVotes);\n        for(uint i = 0; i< totalVotes; i++){\n            votesAux[i] = votes[i];\n        }\n        return votesAux;\n    }\n\n    function getVoters() public view returns(Voter[] memory){\n        Voter[] memory votersAux = new Voter[](votersCount);\n          for(uint i = 0; i < votersCount; i++){\n            votersAux[i] = voters[votersKeys[i]];\n        }\n        return votersAux;\n    }\n\n    function getCandidates() public view returns(Candidate[] memory){\n        Candidate[] memory candidatesAux = new Candidate[](candidatesCount);\n          for(uint i = 0; i< candidatesCount; i++){\n            candidatesAux[i] = candidates[i+1];\n        }\n        return candidatesAux;\n    }\n}\n",
  "sourcePath": "C:/Gui/playground/react/contracts/Election.sol",
  "compiler": {
    "name": "solc",
    "version": "0.5.16+commit.9c3226ce.Emscripten.clang"
  },
  "schemaVersion": "3.3.4",
  "updatedAt": "2021-04-25T01:33:55.023Z",
  "networkType": "ethereum",
  "devdoc": {
    "methods": {}
  },
  "userdoc": {
    "methods": {}
  }
}